{
  "contractName": "CharityPlatform",
  "abi": [
    {
      "inputs": [],
      "payable": false,
      "stateMutability": "nonpayable",
      "type": "constructor"
    },
    {
      "constant": false,
      "inputs": [
        {
          "name": "_title",
          "type": "string"
        },
        {
          "name": "_description",
          "type": "string"
        },
        {
          "name": "_imgHash",
          "type": "string"
        },
        {
          "name": "_minorityProofHash",
          "type": "string"
        },
        {
          "name": "_targetFund",
          "type": "uint256"
        }
      ],
      "name": "addMission",
      "outputs": [
        {
          "name": "success",
          "type": "bool"
        }
      ],
      "payable": false,
      "stateMutability": "nonpayable",
      "type": "function"
    },
    {
      "constant": false,
      "inputs": [
        {
          "name": "_missionID",
          "type": "uint256"
        },
        {
          "name": "tokens",
          "type": "uint256"
        }
      ],
      "name": "donateMission",
      "outputs": [
        {
          "name": "success",
          "type": "bool"
        }
      ],
      "payable": false,
      "stateMutability": "nonpayable",
      "type": "function"
    },
    {
      "constant": true,
      "inputs": [],
      "name": "closeMission",
      "outputs": [
        {
          "name": "",
          "type": "address"
        },
        {
          "name": "",
          "type": "uint256"
        }
      ],
      "payable": false,
      "stateMutability": "view",
      "type": "function"
    },
    {
      "constant": true,
      "inputs": [],
      "name": "getMission",
      "outputs": [
        {
          "name": "",
          "type": "uint256"
        },
        {
          "name": "",
          "type": "string"
        },
        {
          "name": "",
          "type": "string"
        },
        {
          "name": "",
          "type": "string"
        },
        {
          "name": "",
          "type": "string"
        },
        {
          "name": "",
          "type": "uint256"
        },
        {
          "name": "",
          "type": "uint256"
        },
        {
          "name": "",
          "type": "address"
        }
      ],
      "payable": false,
      "stateMutability": "view",
      "type": "function"
    },
    {
      "constant": true,
      "inputs": [
        {
          "name": "_missionID",
          "type": "uint256"
        }
      ],
      "name": "getMissionById",
      "outputs": [
        {
          "name": "",
          "type": "uint256"
        },
        {
          "name": "",
          "type": "string"
        },
        {
          "name": "",
          "type": "string"
        },
        {
          "name": "",
          "type": "string"
        },
        {
          "name": "",
          "type": "string"
        },
        {
          "name": "",
          "type": "uint256"
        },
        {
          "name": "",
          "type": "uint256"
        },
        {
          "name": "",
          "type": "address"
        }
      ],
      "payable": false,
      "stateMutability": "view",
      "type": "function"
    },
    {
      "constant": true,
      "inputs": [
        {
          "name": "_missionID",
          "type": "uint256"
        }
      ],
      "name": "escrowInfo",
      "outputs": [
        {
          "name": "",
          "type": "address"
        }
      ],
      "payable": false,
      "stateMutability": "view",
      "type": "function"
    }
  ],
  "bytecode": "0x6080604052731614bf3d2107aa755430202d101e9c50485805be6000806101000a81548173ffffffffffffffffffffffffffffffffffffffff021916908373ffffffffffffffffffffffffffffffffffffffff16021790555073a811361389625ae7a2205ec0e92dd542f1fecd8a600160006101000a81548173ffffffffffffffffffffffffffffffffffffffff021916908373ffffffffffffffffffffffffffffffffffffffff1602179055503480156100b957600080fd5b5060006002819055506002600381905550611f1d806100d96000396000f3fe608060405260043610610078576000357c0100000000000000000000000000000000000000000000000000000000900463ffffffff168063130e09061461007d57806316cc67e5146102995780631e574de2146104d957806350a42e08146105375780638356052514610594578063d2e666541461060f575b600080fd5b34801561008957600080fd5b506100926108be565b60405180898152602001806020018060200180602001806020018881526020018781526020018673ffffffffffffffffffffffffffffffffffffffff1673ffffffffffffffffffffffffffffffffffffffff16815260200185810385528c818151815260200191508051906020019080838360005b83811015610122578082015181840152602081019050610107565b50505050905090810190601f16801561014f5780820380516001836020036101000a031916815260200191505b5085810384528b818151815260200191508051906020019080838360005b8381101561018857808201518184015260208101905061016d565b50505050905090810190601f1680156101b55780820380516001836020036101000a031916815260200191505b5085810383528a818151815260200191508051906020019080838360005b838110156101ee5780820151818401526020810190506101d3565b50505050905090810190601f16801561021b5780820380516001836020036101000a031916815260200191505b50858103825289818151815260200191508051906020019080838360005b83811015610254578082015181840152602081019050610239565b50505050905090810190601f1680156102815780820380516001836020036101000a031916815260200191505b509c5050505050505050505050505060405180910390f35b3480156102a557600080fd5b506102d2600480360360208110156102bc57600080fd5b8101908080359060200190929190505050610c6f565b60405180898152602001806020018060200180602001806020018881526020018781526020018673ffffffffffffffffffffffffffffffffffffffff1673ffffffffffffffffffffffffffffffffffffffff16815260200185810385528c818151815260200191508051906020019080838360005b83811015610362578082015181840152602081019050610347565b50505050905090810190601f16801561038f5780820380516001836020036101000a031916815260200191505b5085810384528b818151815260200191508051906020019080838360005b838110156103c85780820151818401526020810190506103ad565b50505050905090810190601f1680156103f55780820380516001836020036101000a031916815260200191505b5085810383528a818151815260200191508051906020019080838360005b8381101561042e578082015181840152602081019050610413565b50505050905090810190601f16801561045b5780820380516001836020036101000a031916815260200191505b50858103825289818151815260200191508051906020019080838360005b83811015610494578082015181840152602081019050610479565b50505050905090810190601f1680156104c15780820380516001836020036101000a031916815260200191505b509c5050505050505050505050505060405180910390f35b3480156104e557600080fd5b506104ee611054565b604051808373ffffffffffffffffffffffffffffffffffffffff1673ffffffffffffffffffffffffffffffffffffffff1681526020018281526020019250505060405180910390f35b34801561054357600080fd5b5061057a6004803603604081101561055a57600080fd5b81019080803590602001909291908035906020019092919050505061127f565b604051808215151515815260200191505060405180910390f35b3480156105a057600080fd5b506105cd600480360360208110156105b757600080fd5b8101908080359060200190929190505050611816565b604051808273ffffffffffffffffffffffffffffffffffffffff1673ffffffffffffffffffffffffffffffffffffffff16815260200191505060405180910390f35b34801561061b57600080fd5b506108a4600480360360a081101561063257600080fd5b810190808035906020019064010000000081111561064f57600080fd5b82018360208201111561066157600080fd5b8035906020019184600183028401116401000000008311171561068357600080fd5b91908080601f016020809104026020016040519081016040528093929190818152602001838380828437600081840152601f19601f820116905080830192505050505050509192919290803590602001906401000000008111156106e657600080fd5b8201836020820111156106f857600080fd5b8035906020019184600183028401116401000000008311171561071a57600080fd5b91908080601f016020809104026020016040519081016040528093929190818152602001838380828437600081840152601f19601f8201169050808301925050505050505091929192908035906020019064010000000081111561077d57600080fd5b82018360208201111561078f57600080fd5b803590602001918460018302840111640100000000831117156107b157600080fd5b91908080601f016020809104026020016040519081016040528093929190818152602001838380828437600081840152601f19601f8201169050808301925050505050505091929192908035906020019064010000000081111561081457600080fd5b82018360208201111561082657600080fd5b8035906020019184600183028401116401000000008311171561084857600080fd5b91908080601f016020809104026020016040519081016040528093929190818152602001838380828437600081840152601f19601f820116905080830192505050505050509192919290803590602001909291905050506118ef565b604051808215151515815260200191505060405180910390f35b600060608060608060008060006108d3611c89565b600560003373ffffffffffffffffffffffffffffffffffffffff1673ffffffffffffffffffffffffffffffffffffffff168152602001908152602001600020610100604051908101604052908160008201548152602001600182018054600181600116156101000203166002900480601f0160208091040260200160405190810160405280929190818152602001828054600181600116156101000203166002900480156109c25780601f10610997576101008083540402835291602001916109c2565b820191906000526020600020905b8154815290600101906020018083116109a557829003601f168201915b50505050508152602001600282018054600181600116156101000203166002900480601f016020809104026020016040519081016040528092919081815260200182805460018160011615610100020316600290048015610a645780601f10610a3957610100808354040283529160200191610a64565b820191906000526020600020905b815481529060010190602001808311610a4757829003601f168201915b50505050508152602001600382018054600181600116156101000203166002900480601f016020809104026020016040519081016040528092919081815260200182805460018160011615610100020316600290048015610b065780601f10610adb57610100808354040283529160200191610b06565b820191906000526020600020905b815481529060010190602001808311610ae957829003601f168201915b50505050508152602001600482018054600181600116156101000203166002900480601f016020809104026020016040519081016040528092919081815260200182805460018160011615610100020316600290048015610ba85780601f10610b7d57610100808354040283529160200191610ba8565b820191906000526020600020905b815481529060010190602001808311610b8b57829003601f168201915b5050505050815260200160058201548152602001600682015481526020016007820160009054906101000a900473ffffffffffffffffffffffffffffffffffffffff1673ffffffffffffffffffffffffffffffffffffffff1673ffffffffffffffffffffffffffffffffffffffff16815250509050806000015181602001518260400151836060015184608001518560a001518660c001518760e0015186965085955084945083935080905098509850985098509850985098509850509091929394959697565b60006060806060806000806000610c84611c89565b60056000600460008d815260200190815260200160002060009054906101000a900473ffffffffffffffffffffffffffffffffffffffff1673ffffffffffffffffffffffffffffffffffffffff1673ffffffffffffffffffffffffffffffffffffffff168152602001908152602001600020610100604051908101604052908160008201548152602001600182018054600181600116156101000203166002900480601f016020809104026020016040519081016040528092919081815260200182805460018160011615610100020316600290048015610da65780601f10610d7b57610100808354040283529160200191610da6565b820191906000526020600020905b815481529060010190602001808311610d8957829003601f168201915b50505050508152602001600282018054600181600116156101000203166002900480601f016020809104026020016040519081016040528092919081815260200182805460018160011615610100020316600290048015610e485780601f10610e1d57610100808354040283529160200191610e48565b820191906000526020600020905b815481529060010190602001808311610e2b57829003601f168201915b50505050508152602001600382018054600181600116156101000203166002900480601f016020809104026020016040519081016040528092919081815260200182805460018160011615610100020316600290048015610eea5780601f10610ebf57610100808354040283529160200191610eea565b820191906000526020600020905b815481529060010190602001808311610ecd57829003601f168201915b50505050508152602001600482018054600181600116156101000203166002900480601f016020809104026020016040519081016040528092919081815260200182805460018160011615610100020316600290048015610f8c5780601f10610f6157610100808354040283529160200191610f8c565b820191906000526020600020905b815481529060010190602001808311610f6f57829003601f168201915b5050505050815260200160058201548152602001600682015481526020016007820160009054906101000a900473ffffffffffffffffffffffffffffffffffffffff1673ffffffffffffffffffffffffffffffffffffffff1673ffffffffffffffffffffffffffffffffffffffff16815250509050806000015181602001518260400151836060015184608001518560a001518660c001518760e001518696508595508494508393508090509850985098509850985098509850985050919395975091939597565b6000803373ffffffffffffffffffffffffffffffffffffffff1660046000600660003373ffffffffffffffffffffffffffffffffffffffff1673ffffffffffffffffffffffffffffffffffffffff16815260200190815260200160002054815260200190815260200160002060009054906101000a900473ffffffffffffffffffffffffffffffffffffffff1673ffffffffffffffffffffffffffffffffffffffff1614151561110357600080fd5b600060086000600660003373ffffffffffffffffffffffffffffffffffffffff1673ffffffffffffffffffffffffffffffffffffffff16815260200190815260200160002054815260200190815260200160002060009054906101000a900473ffffffffffffffffffffffffffffffffffffffff16905060008060009054906101000a900473ffffffffffffffffffffffffffffffffffffffff1673ffffffffffffffffffffffffffffffffffffffff166370a08231836040518263ffffffff167c0100000000000000000000000000000000000000000000000000000000028152600401808273ffffffffffffffffffffffffffffffffffffffff1673ffffffffffffffffffffffffffffffffffffffff16815260200191505060206040518083038186803b15801561123657600080fd5b505afa15801561124a573d6000803e3d6000fd5b505050506040513d602081101561126057600080fd5b8101908080519060200190929190505050905081819350935050509091565b60003373ffffffffffffffffffffffffffffffffffffffff166004600085815260200190815260200160002060009054906101000a900473ffffffffffffffffffffffffffffffffffffffff1673ffffffffffffffffffffffffffffffffffffffff16141515156112ef57600080fd5b81600560006004600087815260200190815260200160002060009054906101000a900473ffffffffffffffffffffffffffffffffffffffff1673ffffffffffffffffffffffffffffffffffffffff1673ffffffffffffffffffffffffffffffffffffffff16815260200190815260200160002060060154600560006004600088815260200190815260200160002060009054906101000a900473ffffffffffffffffffffffffffffffffffffffff1673ffffffffffffffffffffffffffffffffffffffff1673ffffffffffffffffffffffffffffffffffffffff1681526020019081526020016000206005015403101515156113ea57600080fd5b816000809054906101000a900473ffffffffffffffffffffffffffffffffffffffff1673ffffffffffffffffffffffffffffffffffffffff166370a08231336040518263ffffffff167c0100000000000000000000000000000000000000000000000000000000028152600401808273ffffffffffffffffffffffffffffffffffffffff1673ffffffffffffffffffffffffffffffffffffffff16815260200191505060206040518083038186803b1580156114a557600080fd5b505afa1580156114b9573d6000803e3d6000fd5b505050506040513d60208110156114cf57600080fd5b8101908080519060200190929190505050101515156114ed57600080fd5b6000809054906101000a900473ffffffffffffffffffffffffffffffffffffffff1673ffffffffffffffffffffffffffffffffffffffff16632126aa09336008600087815260200190815260200160002060009054906101000a900473ffffffffffffffffffffffffffffffffffffffff16856040518463ffffffff167c0100000000000000000000000000000000000000000000000000000000028152600401808473ffffffffffffffffffffffffffffffffffffffff1673ffffffffffffffffffffffffffffffffffffffff1681526020018373ffffffffffffffffffffffffffffffffffffffff1673ffffffffffffffffffffffffffffffffffffffff1681526020018281526020019350505050602060405180830381600087803b15801561161857600080fd5b505af115801561162c573d6000803e3d6000fd5b505050506040513d602081101561164257600080fd5b81019080805190602001909291905050505081600560006004600087815260200190815260200160002060009054906101000a900473ffffffffffffffffffffffffffffffffffffffff1673ffffffffffffffffffffffffffffffffffffffff1673ffffffffffffffffffffffffffffffffffffffff16815260200190815260200160002060080160003373ffffffffffffffffffffffffffffffffffffffff1673ffffffffffffffffffffffffffffffffffffffff1681526020019081526020016000208190555061179382600560006004600088815260200190815260200160002060009054906101000a900473ffffffffffffffffffffffffffffffffffffffff1673ffffffffffffffffffffffffffffffffffffffff1673ffffffffffffffffffffffffffffffffffffffff16815260200190815260200160002060060154611c6890919063ffffffff16565b600560006004600087815260200190815260200160002060009054906101000a900473ffffffffffffffffffffffffffffffffffffffff1673ffffffffffffffffffffffffffffffffffffffff1673ffffffffffffffffffffffffffffffffffffffff168152602001908152602001600020600601819055506001905092915050565b60006008600083815260200190815260200160002060009054906101000a900473ffffffffffffffffffffffffffffffffffffffff1673ffffffffffffffffffffffffffffffffffffffff1663f3d259046040518163ffffffff167c010000000000000000000000000000000000000000000000000000000002815260040160206040518083038186803b1580156118ad57600080fd5b505afa1580156118c1573d6000803e3d6000fd5b505050506040513d60208110156118d757600080fd5b81019080805190602001909291905050509050919050565b600060011515600760003373ffffffffffffffffffffffffffffffffffffffff1673ffffffffffffffffffffffffffffffffffffffff16815260200190815260200160002060009054906101000a900460ff1615151415151561195157600080fd5b60026000815480929190600101919050555061196b611c89565b610100604051908101604052806002548152602001888152602001878152602001868152602001858152602001848152602001600081526020013373ffffffffffffffffffffffffffffffffffffffff16815250905080600560003373ffffffffffffffffffffffffffffffffffffffff1673ffffffffffffffffffffffffffffffffffffffff168152602001908152602001600020600082015181600001556020820151816001019080519060200190611a27929190611ce5565b506040820151816002019080519060200190611a44929190611ce5565b506060820151816003019080519060200190611a61929190611ce5565b506080820151816004019080519060200190611a7e929190611ce5565b5060a0820151816005015560c0820151816006015560e08201518160070160006101000a81548173ffffffffffffffffffffffffffffffffffffffff021916908373ffffffffffffffffffffffffffffffffffffffff1602179055509050503360046000600254815260200190815260200160002060006101000a81548173ffffffffffffffffffffffffffffffffffffffff021916908373ffffffffffffffffffffffffffffffffffffffff160217905550600254600660003373ffffffffffffffffffffffffffffffffffffffff1673ffffffffffffffffffffffffffffffffffffffff168152602001908152602001600020819055506001600760003373ffffffffffffffffffffffffffffffffffffffff1673ffffffffffffffffffffffffffffffffffffffff16815260200190815260200160002060006101000a81548160ff0219169083151502179055506000600254611bdc611d65565b80828152602001915050604051809103906000f080158015611c02573d6000803e3d6000fd5b5090508060086000600254815260200190815260200160002060006101000a81548173ffffffffffffffffffffffffffffffffffffffff021916908373ffffffffffffffffffffffffffffffffffffffff16021790555060019250505095945050505050565b6000808284019050838110151515611c7f57600080fd5b8091505092915050565b6101006040519081016040528060008152602001606081526020016060815260200160608152602001606081526020016000815260200160008152602001600073ffffffffffffffffffffffffffffffffffffffff1681525090565b828054600181600116156101000203166002900490600052602060002090601f016020900481019282601f10611d2657805160ff1916838001178555611d54565b82800160010185558215611d54579182015b82811115611d53578251825591602001919060010190611d38565b5b509050611d619190611d75565b5090565b60405161015780611d9b83390190565b611d9791905b80821115611d93576000816000905550600101611d7b565b5090565b9056fe60806040526040516020806101578339810180604052602081101561002357600080fd5b810190808051906020019092919050505033600260006101000a81548173ffffffffffffffffffffffffffffffffffffffff021916908373ffffffffffffffffffffffffffffffffffffffff160217905550806000819055505060cc8061008b6000396000f3fe608060405260043610603f576000357c0100000000000000000000000000000000000000000000000000000000900463ffffffff168063f3d25904146044575b600080fd5b348015604f57600080fd5b5060566098565b604051808273ffffffffffffffffffffffffffffffffffffffff1673ffffffffffffffffffffffffffffffffffffffff16815260200191505060405180910390f35b60003090509056fea165627a7a723058203bbd888d73f9514eff3cc77337fe632ae33f3b426c2dff5d4dbbbb2305b73d570029a165627a7a723058207332b1483581293017f23178f1503fb7da6b1d5fb0eb5b9f829777cc522b23b70029",
  "source": "pragma solidity ^0.5.0;\n\nimport \"./lib/SafeMath.sol\";\nimport \"./lib/ERC20LIPInterface.sol\";\nimport \"./lib/ERC20BCPInterface.sol\";\nimport \"./Escrow.sol\";\n\n\ncontract CharityPlatform{\n    \n    using SafeMath for uint;\n    \n    // ERC20 contract\n    address BCPAddr = 0x1614BF3D2107Aa755430202d101e9c50485805BE;\n    address LIPAddr = 0xa811361389625aE7a2205EC0E92DD542F1feCd8a;\n    \n    uint internal missionIndex;\n    uint internal exchangeRate;\n    mapping(uint => address) missionIdxList; // missionID -> missionOwnerAddr\n    mapping(address => Mission) missonList; // missionOwnerAddr -> Mission\n    mapping(address => uint) ownerToMissionId; // ownerAddr -> missionID\n    mapping(address => bool) appliedMissionList; // ownerAddr -> bool\n    \n    mapping(uint => address) escrowMissionList; // missionID -> escrowAddr \n    \n    struct Mission {\n        uint id;\n        string title;\n        string description;\n        string imgHash;\n        string minorityHash;\n        uint targetFund;\n        uint fundedAmount;\n        address payable ownerAddr;\n        mapping(address => uint) ledger;\n    }\n    \n    constructor() public {\n        missionIndex = 0;\n        exchangeRate = 2;\n    }\n    \n    // Add New Mission\n    function addMission(\n        string memory _title, \n        string memory _description,\n        string memory _imgHash,\n        string memory _minorityProofHash,\n        uint _targetFund) public returns (bool success) {\n        // Check whether msg.sender has had already applied for mission\n        require(appliedMissionList[msg.sender] != true);\n        \n        // Create New Mission\n        missionIndex ++;\n        Mission memory mission = Mission(missionIndex, _title, _description, _imgHash,  _minorityProofHash, _targetFund, 0, msg.sender);\n        missonList[msg.sender] = mission;\n        missionIdxList[missionIndex] = msg.sender;\n        ownerToMissionId[msg.sender] = missionIndex;\n        appliedMissionList[msg.sender] = true;\n\n        // Create Mission Escrow \n        Escrow escrow = new Escrow(missionIndex);\n        escrowMissionList[missionIndex] = address(escrow);\n        return true;\n    }\n    \n\n    // Donate Mission \n    function donateMission(uint _missionID, uint tokens) public returns (bool success) {\n        require(missionIdxList[_missionID] != msg.sender);\n        require(missonList[missionIdxList[_missionID]].targetFund - missonList[missionIdxList[_missionID]].fundedAmount >= tokens);\n        \n        // Donation\n        require(ERC20BCPInterface(BCPAddr).balanceOf(msg.sender) >= tokens);  // Donator's BCP >= tokens\n        // Transfer BCP from Donator to MissionContractAddress\n        ERC20BCPInterface(BCPAddr).transferFromContract(msg.sender, escrowMissionList[_missionID], tokens); \n        \n        missonList[missionIdxList[_missionID]].ledger[msg.sender] = tokens;\n        missonList[missionIdxList[_missionID]].fundedAmount = missonList[missionIdxList[_missionID]].fundedAmount.add(tokens);   \n        return true;\n    }\n\n\n    // Mission Closing : Exchange from BCP in Escrow to LIP back to missionOwner\n    function closeMission() public view returns (address, uint) {\n        require(missionIdxList[ownerToMissionId[msg.sender]] == msg.sender); // only missionOwner can close mission\n        \n        address escrowAddr = escrowMissionList[ownerToMissionId[msg.sender]];\n        uint escrowTotalBCP = ERC20BCPInterface(BCPAddr).balanceOf(escrowAddr);\n        \n        \n        // Sendback BCP to BCP.ContractAddress from missionOwner\n        // ERC20BCPInterface(BCPAddr).transferFromContract(escrowMissionList[ownerToMissionId[msg.sender]], BCPAddr, escrowTotalBCP);\n        \n        // // Exchage to LIP from BCP.ContractAddress to missionOwner\n        // require(ERC20LIPInterface(LIPAddr).balanceOf(BCPAddr) >= escrowTotalBCP.div(exchangeRate)); // require BCP have enough LIP to exchange\n        // ERC20LIPInterface(LIPAddr).transferFromContract(BCPAddr, msg.sender, escrowTotalBCP.div(exchangeRate));  \n        return (escrowAddr, escrowTotalBCP);\n    }\n\n\n\n    // Information Function\n    function getMission() public view returns (uint, string memory, string memory, string memory, string memory, uint, uint, address){\n        Mission memory mission = missonList[msg.sender];\n        return (mission.id, mission.title, mission.description, mission.imgHash, mission.minorityHash, mission.targetFund, mission.fundedAmount, mission.ownerAddr);\n    }\n    \n    function getMissionById(uint _missionID) public view returns (uint, string memory, string memory, string memory, string memory, uint, uint, address) {\n        Mission memory mission = missonList[missionIdxList[_missionID]];\n        return (mission.id, mission.title, mission.description, mission.imgHash, mission.minorityHash, mission.targetFund, mission.fundedAmount, mission.ownerAddr);\n    }\n    \n    function escrowInfo(uint _missionID) public view returns(address) {\n        return Escrow(escrowMissionList[_missionID]).escrowInfo();\n    }\n}\n",
  "sourcePath": "/Users/kennyhsieh/Documents/0x1 Blockchain/BCP/solidity/contracts/CharityPlatform.sol",
  "compiler": {
    "name": "solc",
    "version": "0.5.0+commit.1d4f565a.Emscripten.clang"
  },
  "schemaVersion": "3.0.9",
  "updatedAt": "2019-05-19T09:34:37.123Z",
  "devdoc": {
    "methods": {}
  },
  "userdoc": {
    "methods": {}
  }
}