{
  "contractName": "CharityPlatform",
  "abi": [
    {
      "inputs": [],
      "payable": true,
      "stateMutability": "payable",
      "type": "constructor",
      "signature": "constructor"
    },
    {
      "constant": false,
      "inputs": [
        {
          "name": "_title",
          "type": "string"
        },
        {
          "name": "_description",
          "type": "string"
        },
        {
          "name": "_imgHash",
          "type": "string"
        },
        {
          "name": "_minorityProofHash",
          "type": "string"
        },
        {
          "name": "_targetFund",
          "type": "uint256"
        }
      ],
      "name": "addMission",
      "outputs": [
        {
          "name": "missionId",
          "type": "uint256"
        },
        {
          "name": "success",
          "type": "bool"
        }
      ],
      "payable": false,
      "stateMutability": "nonpayable",
      "type": "function",
      "signature": "0xd2e66654"
    },
    {
      "constant": false,
      "inputs": [
        {
          "name": "BCPAddr",
          "type": "address"
        },
        {
          "name": "_missionID",
          "type": "uint256"
        },
        {
          "name": "tokens",
          "type": "uint256"
        }
      ],
      "name": "donateMission",
      "outputs": [
        {
          "name": "success",
          "type": "bool"
        }
      ],
      "payable": false,
      "stateMutability": "nonpayable",
      "type": "function",
      "signature": "0x1e238b68"
    },
    {
      "constant": false,
      "inputs": [
        {
          "name": "BCPAddr",
          "type": "address"
        },
        {
          "name": "LIPAddr",
          "type": "address"
        }
      ],
      "name": "closeMission",
      "outputs": [
        {
          "name": "success",
          "type": "bool"
        }
      ],
      "payable": false,
      "stateMutability": "nonpayable",
      "type": "function",
      "signature": "0x3cb1fa7a"
    },
    {
      "constant": true,
      "inputs": [],
      "name": "getMission",
      "outputs": [
        {
          "name": "",
          "type": "uint256"
        },
        {
          "name": "",
          "type": "string"
        },
        {
          "name": "",
          "type": "string"
        },
        {
          "name": "",
          "type": "string"
        },
        {
          "name": "",
          "type": "string"
        },
        {
          "name": "",
          "type": "uint256"
        },
        {
          "name": "",
          "type": "uint256"
        },
        {
          "name": "",
          "type": "address"
        }
      ],
      "payable": false,
      "stateMutability": "view",
      "type": "function",
      "signature": "0x130e0906"
    },
    {
      "constant": true,
      "inputs": [
        {
          "name": "_missionID",
          "type": "uint256"
        }
      ],
      "name": "getMissionById",
      "outputs": [
        {
          "name": "",
          "type": "uint256"
        },
        {
          "name": "",
          "type": "string"
        },
        {
          "name": "",
          "type": "string"
        },
        {
          "name": "",
          "type": "string"
        },
        {
          "name": "",
          "type": "string"
        },
        {
          "name": "",
          "type": "uint256"
        },
        {
          "name": "",
          "type": "uint256"
        },
        {
          "name": "",
          "type": "address"
        }
      ],
      "payable": false,
      "stateMutability": "view",
      "type": "function",
      "signature": "0x16cc67e5"
    },
    {
      "constant": true,
      "inputs": [
        {
          "name": "_missionID",
          "type": "uint256"
        }
      ],
      "name": "escrowInfo",
      "outputs": [
        {
          "name": "",
          "type": "address"
        }
      ],
      "payable": false,
      "stateMutability": "view",
      "type": "function",
      "signature": "0x83560525"
    }
  ],
  "bytecode": "0x60806040526000808190555060026001819055506123c2806100226000396000f3fe608060405260043610610078576000357c0100000000000000000000000000000000000000000000000000000000900463ffffffff168063130e09061461007d57806316cc67e5146102995780631e238b68146104d95780633cb1fa7a1461055657806383560525146105df578063d2e666541461065a575b600080fd5b34801561008957600080fd5b50610092610910565b60405180898152602001806020018060200180602001806020018881526020018781526020018673ffffffffffffffffffffffffffffffffffffffff1673ffffffffffffffffffffffffffffffffffffffff16815260200185810385528c818151815260200191508051906020019080838360005b83811015610122578082015181840152602081019050610107565b50505050905090810190601f16801561014f5780820380516001836020036101000a031916815260200191505b5085810384528b818151815260200191508051906020019080838360005b8381101561018857808201518184015260208101905061016d565b50505050905090810190601f1680156101b55780820380516001836020036101000a031916815260200191505b5085810383528a818151815260200191508051906020019080838360005b838110156101ee5780820151818401526020810190506101d3565b50505050905090810190601f16801561021b5780820380516001836020036101000a031916815260200191505b50858103825289818151815260200191508051906020019080838360005b83811015610254578082015181840152602081019050610239565b50505050905090810190601f1680156102815780820380516001836020036101000a031916815260200191505b509c5050505050505050505050505060405180910390f35b3480156102a557600080fd5b506102d2600480360360208110156102bc57600080fd5b8101908080359060200190929190505050610cc1565b60405180898152602001806020018060200180602001806020018881526020018781526020018673ffffffffffffffffffffffffffffffffffffffff1673ffffffffffffffffffffffffffffffffffffffff16815260200185810385528c818151815260200191508051906020019080838360005b83811015610362578082015181840152602081019050610347565b50505050905090810190601f16801561038f5780820380516001836020036101000a031916815260200191505b5085810384528b818151815260200191508051906020019080838360005b838110156103c85780820151818401526020810190506103ad565b50505050905090810190601f1680156103f55780820380516001836020036101000a031916815260200191505b5085810383528a818151815260200191508051906020019080838360005b8381101561042e578082015181840152602081019050610413565b50505050905090810190601f16801561045b5780820380516001836020036101000a031916815260200191505b50858103825289818151815260200191508051906020019080838360005b83811015610494578082015181840152602081019050610479565b50505050905090810190601f1680156104c15780820380516001836020036101000a031916815260200191505b509c5050505050505050505050505060405180910390f35b3480156104e557600080fd5b5061053c600480360360608110156104fc57600080fd5b81019080803573ffffffffffffffffffffffffffffffffffffffff16906020019092919080359060200190929190803590602001909291905050506110a6565b604051808215151515815260200191505060405180910390f35b34801561056257600080fd5b506105c56004803603604081101561057957600080fd5b81019080803573ffffffffffffffffffffffffffffffffffffffff169060200190929190803573ffffffffffffffffffffffffffffffffffffffff1690602001909291905050506115fc565b604051808215151515815260200191505060405180910390f35b3480156105eb57600080fd5b506106186004803603602081101561060257600080fd5b8101908080359060200190929190505050611c6c565b604051808273ffffffffffffffffffffffffffffffffffffffff1673ffffffffffffffffffffffffffffffffffffffff16815260200191505060405180910390f35b34801561066657600080fd5b506108ef600480360360a081101561067d57600080fd5b810190808035906020019064010000000081111561069a57600080fd5b8201836020820111156106ac57600080fd5b803590602001918460018302840111640100000000831117156106ce57600080fd5b91908080601f016020809104026020016040519081016040528093929190818152602001838380828437600081840152601f19601f8201169050808301925050505050505091929192908035906020019064010000000081111561073157600080fd5b82018360208201111561074357600080fd5b8035906020019184600183028401116401000000008311171561076557600080fd5b91908080601f016020809104026020016040519081016040528093929190818152602001838380828437600081840152601f19601f820116905080830192505050505050509192919290803590602001906401000000008111156107c857600080fd5b8201836020820111156107da57600080fd5b803590602001918460018302840111640100000000831117156107fc57600080fd5b91908080601f016020809104026020016040519081016040528093929190818152602001838380828437600081840152601f19601f8201169050808301925050505050505091929192908035906020019064010000000081111561085f57600080fd5b82018360208201111561087157600080fd5b8035906020019184600183028401116401000000008311171561089357600080fd5b91908080601f016020809104026020016040519081016040528093929190818152602001838380828437600081840152601f19601f82011690508083019250505050505050919291929080359060200190929190505050611d45565b60405180838152602001821515151581526020019250505060405180910390f35b6000606080606080600080600061092561212e565b600360003373ffffffffffffffffffffffffffffffffffffffff1673ffffffffffffffffffffffffffffffffffffffff168152602001908152602001600020610100604051908101604052908160008201548152602001600182018054600181600116156101000203166002900480601f016020809104026020016040519081016040528092919081815260200182805460018160011615610100020316600290048015610a145780601f106109e957610100808354040283529160200191610a14565b820191906000526020600020905b8154815290600101906020018083116109f757829003601f168201915b50505050508152602001600282018054600181600116156101000203166002900480601f016020809104026020016040519081016040528092919081815260200182805460018160011615610100020316600290048015610ab65780601f10610a8b57610100808354040283529160200191610ab6565b820191906000526020600020905b815481529060010190602001808311610a9957829003601f168201915b50505050508152602001600382018054600181600116156101000203166002900480601f016020809104026020016040519081016040528092919081815260200182805460018160011615610100020316600290048015610b585780601f10610b2d57610100808354040283529160200191610b58565b820191906000526020600020905b815481529060010190602001808311610b3b57829003601f168201915b50505050508152602001600482018054600181600116156101000203166002900480601f016020809104026020016040519081016040528092919081815260200182805460018160011615610100020316600290048015610bfa5780601f10610bcf57610100808354040283529160200191610bfa565b820191906000526020600020905b815481529060010190602001808311610bdd57829003601f168201915b5050505050815260200160058201548152602001600682015481526020016007820160009054906101000a900473ffffffffffffffffffffffffffffffffffffffff1673ffffffffffffffffffffffffffffffffffffffff1673ffffffffffffffffffffffffffffffffffffffff16815250509050806000015181602001518260400151836060015184608001518560a001518660c001518760e0015186965085955084945083935080905098509850985098509850985098509850509091929394959697565b60006060806060806000806000610cd661212e565b60036000600260008d815260200190815260200160002060009054906101000a900473ffffffffffffffffffffffffffffffffffffffff1673ffffffffffffffffffffffffffffffffffffffff1673ffffffffffffffffffffffffffffffffffffffff168152602001908152602001600020610100604051908101604052908160008201548152602001600182018054600181600116156101000203166002900480601f016020809104026020016040519081016040528092919081815260200182805460018160011615610100020316600290048015610df85780601f10610dcd57610100808354040283529160200191610df8565b820191906000526020600020905b815481529060010190602001808311610ddb57829003601f168201915b50505050508152602001600282018054600181600116156101000203166002900480601f016020809104026020016040519081016040528092919081815260200182805460018160011615610100020316600290048015610e9a5780601f10610e6f57610100808354040283529160200191610e9a565b820191906000526020600020905b815481529060010190602001808311610e7d57829003601f168201915b50505050508152602001600382018054600181600116156101000203166002900480601f016020809104026020016040519081016040528092919081815260200182805460018160011615610100020316600290048015610f3c5780601f10610f1157610100808354040283529160200191610f3c565b820191906000526020600020905b815481529060010190602001808311610f1f57829003601f168201915b50505050508152602001600482018054600181600116156101000203166002900480601f016020809104026020016040519081016040528092919081815260200182805460018160011615610100020316600290048015610fde5780601f10610fb357610100808354040283529160200191610fde565b820191906000526020600020905b815481529060010190602001808311610fc157829003601f168201915b5050505050815260200160058201548152602001600682015481526020016007820160009054906101000a900473ffffffffffffffffffffffffffffffffffffffff1673ffffffffffffffffffffffffffffffffffffffff1673ffffffffffffffffffffffffffffffffffffffff16815250509050806000015181602001518260400151836060015184608001518560a001518660c001518760e001518696508595508494508393508090509850985098509850985098509850985050919395975091939597565b60003373ffffffffffffffffffffffffffffffffffffffff166002600085815260200190815260200160002060009054906101000a900473ffffffffffffffffffffffffffffffffffffffff1673ffffffffffffffffffffffffffffffffffffffff161415151561111657600080fd5b81600360006002600087815260200190815260200160002060009054906101000a900473ffffffffffffffffffffffffffffffffffffffff1673ffffffffffffffffffffffffffffffffffffffff1673ffffffffffffffffffffffffffffffffffffffff16815260200190815260200160002060060154600360006002600088815260200190815260200160002060009054906101000a900473ffffffffffffffffffffffffffffffffffffffff1673ffffffffffffffffffffffffffffffffffffffff1673ffffffffffffffffffffffffffffffffffffffff16815260200190815260200160002060050154031015151561121157600080fd5b818473ffffffffffffffffffffffffffffffffffffffff166370a08231336040518263ffffffff167c0100000000000000000000000000000000000000000000000000000000028152600401808273ffffffffffffffffffffffffffffffffffffffff1673ffffffffffffffffffffffffffffffffffffffff16815260200191505060206040518083038186803b1580156112ab57600080fd5b505afa1580156112bf573d6000803e3d6000fd5b505050506040513d60208110156112d557600080fd5b8101908080519060200190929190505050101515156112f357600080fd5b8373ffffffffffffffffffffffffffffffffffffffff16632126aa09336006600087815260200190815260200160002060009054906101000a900473ffffffffffffffffffffffffffffffffffffffff16856040518463ffffffff167c0100000000000000000000000000000000000000000000000000000000028152600401808473ffffffffffffffffffffffffffffffffffffffff1673ffffffffffffffffffffffffffffffffffffffff1681526020018373ffffffffffffffffffffffffffffffffffffffff1673ffffffffffffffffffffffffffffffffffffffff1681526020018281526020019350505050602060405180830381600087803b1580156113fd57600080fd5b505af1158015611411573d6000803e3d6000fd5b505050506040513d602081101561142757600080fd5b81019080805190602001909291905050505081600360006002600087815260200190815260200160002060009054906101000a900473ffffffffffffffffffffffffffffffffffffffff1673ffffffffffffffffffffffffffffffffffffffff1673ffffffffffffffffffffffffffffffffffffffff16815260200190815260200160002060080160003373ffffffffffffffffffffffffffffffffffffffff1673ffffffffffffffffffffffffffffffffffffffff1681526020019081526020016000208190555061157882600360006002600088815260200190815260200160002060009054906101000a900473ffffffffffffffffffffffffffffffffffffffff1673ffffffffffffffffffffffffffffffffffffffff1673ffffffffffffffffffffffffffffffffffffffff168152602001908152602001600020600601546120c190919063ffffffff16565b600360006002600087815260200190815260200160002060009054906101000a900473ffffffffffffffffffffffffffffffffffffffff1673ffffffffffffffffffffffffffffffffffffffff1673ffffffffffffffffffffffffffffffffffffffff16815260200190815260200160002060060181905550600190509392505050565b60003373ffffffffffffffffffffffffffffffffffffffff1660026000600460003373ffffffffffffffffffffffffffffffffffffffff1673ffffffffffffffffffffffffffffffffffffffff16815260200190815260200160002054815260200190815260200160002060009054906101000a900473ffffffffffffffffffffffffffffffffffffffff1673ffffffffffffffffffffffffffffffffffffffff161415156116aa57600080fd5b600060066000600460003373ffffffffffffffffffffffffffffffffffffffff1673ffffffffffffffffffffffffffffffffffffffff16815260200190815260200160002054815260200190815260200160002060009054906101000a900473ffffffffffffffffffffffffffffffffffffffff16905060008473ffffffffffffffffffffffffffffffffffffffff166370a08231836040518263ffffffff167c0100000000000000000000000000000000000000000000000000000000028152600401808273ffffffffffffffffffffffffffffffffffffffff1673ffffffffffffffffffffffffffffffffffffffff16815260200191505060206040518083038186803b1580156117bc57600080fd5b505afa1580156117d0573d6000803e3d6000fd5b505050506040513d60208110156117e657600080fd5b810190808051906020019092919050505090508473ffffffffffffffffffffffffffffffffffffffff16632126aa098387846040518463ffffffff167c0100000000000000000000000000000000000000000000000000000000028152600401808473ffffffffffffffffffffffffffffffffffffffff1673ffffffffffffffffffffffffffffffffffffffff1681526020018373ffffffffffffffffffffffffffffffffffffffff1673ffffffffffffffffffffffffffffffffffffffff1681526020018281526020019350505050602060405180830381600087803b1580156118d057600080fd5b505af11580156118e4573d6000803e3d6000fd5b505050506040513d60208110156118fa57600080fd5b81019080805190602001909291905050505061196181600360003373ffffffffffffffffffffffffffffffffffffffff1673ffffffffffffffffffffffffffffffffffffffff168152602001908152602001600020600601546120e290919063ffffffff16565b600360003373ffffffffffffffffffffffffffffffffffffffff1673ffffffffffffffffffffffffffffffffffffffff168152602001908152602001600020600601819055506119bc6001548261210490919063ffffffff16565b8473ffffffffffffffffffffffffffffffffffffffff166370a08231876040518263ffffffff167c0100000000000000000000000000000000000000000000000000000000028152600401808273ffffffffffffffffffffffffffffffffffffffff1673ffffffffffffffffffffffffffffffffffffffff16815260200191505060206040518083038186803b158015611a5557600080fd5b505afa158015611a69573d6000803e3d6000fd5b505050506040513d6020811015611a7f57600080fd5b810190808051906020019092919050505010151515611a9d57600080fd5b8373ffffffffffffffffffffffffffffffffffffffff16632126aa098633611ad06001548661210490919063ffffffff16565b6040518463ffffffff167c0100000000000000000000000000000000000000000000000000000000028152600401808473ffffffffffffffffffffffffffffffffffffffff1673ffffffffffffffffffffffffffffffffffffffff1681526020018373ffffffffffffffffffffffffffffffffffffffff1673ffffffffffffffffffffffffffffffffffffffff1681526020018281526020019350505050602060405180830381600087803b158015611b8857600080fd5b505af1158015611b9c573d6000803e3d6000fd5b505050506040513d6020811015611bb257600080fd5b810190808051906020019092919050505050611c1a6000600360003373ffffffffffffffffffffffffffffffffffffffff1673ffffffffffffffffffffffffffffffffffffffff168152602001908152602001600020600601546120e290919063ffffffff16565b600360003373ffffffffffffffffffffffffffffffffffffffff1673ffffffffffffffffffffffffffffffffffffffff1681526020019081526020016000206006018190555060019250505092915050565b60006006600083815260200190815260200160002060009054906101000a900473ffffffffffffffffffffffffffffffffffffffff1673ffffffffffffffffffffffffffffffffffffffff1663f3d259046040518163ffffffff167c010000000000000000000000000000000000000000000000000000000002815260040160206040518083038186803b158015611d0357600080fd5b505afa158015611d17573d6000803e3d6000fd5b505050506040513d6020811015611d2d57600080fd5b81019080805190602001909291905050509050919050565b60008060011515600560003373ffffffffffffffffffffffffffffffffffffffff1673ffffffffffffffffffffffffffffffffffffffff16815260200190815260200160002060009054906101000a900460ff16151514151515611da857600080fd5b6000808154809291906001019190505550611dc161212e565b610100604051908101604052806000548152602001898152602001888152602001878152602001868152602001858152602001600081526020013373ffffffffffffffffffffffffffffffffffffffff16815250905080600360003373ffffffffffffffffffffffffffffffffffffffff1673ffffffffffffffffffffffffffffffffffffffff168152602001908152602001600020600082015181600001556020820151816001019080519060200190611e7d92919061218a565b506040820151816002019080519060200190611e9a92919061218a565b506060820151816003019080519060200190611eb792919061218a565b506080820151816004019080519060200190611ed492919061218a565b5060a0820151816005015560c0820151816006015560e08201518160070160006101000a81548173ffffffffffffffffffffffffffffffffffffffff021916908373ffffffffffffffffffffffffffffffffffffffff16021790555090505033600260008054815260200190815260200160002060006101000a81548173ffffffffffffffffffffffffffffffffffffffff021916908373ffffffffffffffffffffffffffffffffffffffff160217905550600054600460003373ffffffffffffffffffffffffffffffffffffffff1673ffffffffffffffffffffffffffffffffffffffff168152602001908152602001600020819055506001600560003373ffffffffffffffffffffffffffffffffffffffff1673ffffffffffffffffffffffffffffffffffffffff16815260200190815260200160002060006101000a81548160ff0219169083151502179055506000805461203061220a565b80828152602001915050604051809103906000f080158015612056573d6000803e3d6000fd5b50905080600660008054815260200190815260200160002060006101000a81548173ffffffffffffffffffffffffffffffffffffffff021916908373ffffffffffffffffffffffffffffffffffffffff16021790555060005460019350935050509550959350505050565b60008082840190508381101515156120d857600080fd5b8091505092915050565b60008282111515156120f357600080fd5b600082840390508091505092915050565b6000808211151561211457600080fd5b6000828481151561212157fe5b0490508091505092915050565b6101006040519081016040528060008152602001606081526020016060815260200160608152602001606081526020016000815260200160008152602001600073ffffffffffffffffffffffffffffffffffffffff1681525090565b828054600181600116156101000203166002900490600052602060002090601f016020900481019282601f106121cb57805160ff19168380011785556121f9565b828001600101855582156121f9579182015b828111156121f85782518255916020019190600101906121dd565b5b509050612206919061221a565b5090565b6040516101578061224083390190565b61223c91905b80821115612238576000816000905550600101612220565b5090565b9056fe60806040526040516020806101578339810180604052602081101561002357600080fd5b810190808051906020019092919050505033600260006101000a81548173ffffffffffffffffffffffffffffffffffffffff021916908373ffffffffffffffffffffffffffffffffffffffff160217905550806000819055505060cc8061008b6000396000f3fe608060405260043610603f576000357c0100000000000000000000000000000000000000000000000000000000900463ffffffff168063f3d25904146044575b600080fd5b348015604f57600080fd5b5060566098565b604051808273ffffffffffffffffffffffffffffffffffffffff1673ffffffffffffffffffffffffffffffffffffffff16815260200191505060405180910390f35b60003090509056fea165627a7a723058209c8cf1cfb53d5fd0ddaecd760a716f97ad3209f86c4d66a523f3aad6bdf582d10029a165627a7a723058201c3e2711d9c6b6563ab0312794bd28bde08a1ab20d72435acbd658da4f0f54520029",
  "source": "pragma solidity ^0.5.0;\n\nimport \"./lib/SafeMath.sol\";\nimport \"./lib/ERC20ProInterface.sol\";\nimport \"./Escrow.sol\";\n\ncontract CharityPlatform{\n    using SafeMath for uint;\n    \n    uint internal missionIndex;\n    uint internal exchangeRate;\n    mapping(uint => address) missionIdxList; // missionID -> missionOwnerAddr\n    mapping(address => Mission) missonList; // missionOwnerAddr -> Mission\n    mapping(address => uint) ownerToMissionId; // ownerAddr -> missionID\n    mapping(address => bool) appliedMissionList; // ownerAddr -> bool\n    \n    mapping(uint => address) escrowMissionList; // missionID -> escrowAddr \n    \n    struct Mission {\n        uint id;\n        string title;\n        string description;\n        string imgHash;\n        string minorityHash;\n        uint targetFund;\n        uint fundedAmount;\n        address payable ownerAddr;\n        mapping(address => uint) ledger;\n    }\n    \n    constructor() public payable {\n        missionIndex = 0;\n        exchangeRate = 2;\n    }\n    \n    // Add New Mission\n    function addMission(\n        string memory _title, \n        string memory _description,\n        string memory _imgHash,\n        string memory _minorityProofHash,\n        uint _targetFund) public returns (uint missionId, bool success) {\n        // Check whether msg.sender has had already applied for mission\n        require(appliedMissionList[msg.sender] != true);\n        \n        // Create New Mission\n        missionIndex ++;\n        Mission memory mission = Mission(missionIndex, _title, _description, _imgHash,  _minorityProofHash, _targetFund, 0, msg.sender);\n        missonList[msg.sender] = mission;\n        missionIdxList[missionIndex] = msg.sender;\n        ownerToMissionId[msg.sender] = missionIndex;\n        appliedMissionList[msg.sender] = true;\n\n        // Create Mission Escrow \n        Escrow escrow = new Escrow(missionIndex);\n        escrowMissionList[missionIndex] = address(escrow);\n        return (missionIndex, true);\n    }\n    \n\n    // Donate Mission \n    function donateMission(address BCPAddr, uint _missionID, uint tokens) public returns (bool success) {\n        require(missionIdxList[_missionID] != msg.sender);\n        require(missonList[missionIdxList[_missionID]].targetFund - missonList[missionIdxList[_missionID]].fundedAmount >= tokens);\n        \n        // Donation\n        require(ERC20ProInterface(BCPAddr).balanceOf(msg.sender) >= tokens);  // Donator's BCP >= tokens\n        // Transfer BCP from Donator to MissionContractAddress\n        ERC20ProInterface(BCPAddr).transferFromContract(msg.sender, escrowMissionList[_missionID], tokens); \n        \n        missonList[missionIdxList[_missionID]].ledger[msg.sender] = tokens;\n        missonList[missionIdxList[_missionID]].fundedAmount = missonList[missionIdxList[_missionID]].fundedAmount.add(tokens);   \n        return true;\n    }\n\n\n    function closeMission(address BCPAddr, address LIPAddr) public returns (bool success) {\n        require(missionIdxList[ownerToMissionId[msg.sender]] == msg.sender); // only missionOwner can close mission\n        \n        address escrowAddr = escrowMissionList[ownerToMissionId[msg.sender]];\n        uint escrowTotalBCP = ERC20ProInterface(BCPAddr).balanceOf(escrowAddr);\n        ERC20ProInterface(BCPAddr).transferFromContract(escrowAddr, BCPAddr, escrowTotalBCP); \n        \n       // missonList[missionIdxList[_missionID]].ledger[msg.sender] = tokens;\n        missonList[msg.sender].fundedAmount = missonList[msg.sender].fundedAmount.sub(escrowTotalBCP); \n        // Exchage to LIP from BCP.ContractAddress to missionOwner\n        require(ERC20ProInterface(LIPAddr).balanceOf(BCPAddr) >= escrowTotalBCP.div(exchangeRate)); // require BCP have enough LIP to exchange\n        ERC20ProInterface(LIPAddr).transferFromContract(BCPAddr, msg.sender, escrowTotalBCP.div(exchangeRate)); \n        missonList[msg.sender].fundedAmount = missonList[msg.sender].fundedAmount.sub(0); \n        return true;\n    }\n\n\n\n    // Information Function\n    function getMission() public view returns (uint, string memory, string memory, string memory, string memory, uint, uint, address){\n        Mission memory mission = missonList[msg.sender];\n        return (mission.id, mission.title, mission.description, mission.imgHash, mission.minorityHash, mission.targetFund, mission.fundedAmount, mission.ownerAddr);\n    }\n    \n    function getMissionById(uint _missionID) public view returns (uint, string memory, string memory, string memory, string memory, uint, uint, address) {\n        Mission memory mission = missonList[missionIdxList[_missionID]];\n        return (mission.id, mission.title, mission.description, mission.imgHash, mission.minorityHash, mission.targetFund, mission.fundedAmount, mission.ownerAddr);\n    }\n    \n    function escrowInfo(uint _missionID) public view returns(address) {\n        return Escrow(escrowMissionList[_missionID]).escrowInfo();\n    }\n}\n",
  "sourcePath": "/home/chrislu/blockchain/BCP/solidity/contracts/CharityPlatform.sol",
  "compiler": {
    "name": "solc",
    "version": "0.5.0+commit.1d4f565a.Emscripten.clang"
  },
  "schemaVersion": "3.0.2",
  "updatedAt": "2019-06-15T13:31:56.863Z",
  "devdoc": {
    "methods": {}
  },
  "userdoc": {
    "methods": {}
  }
}