{
  "contractName": "Escrow",
  "abi": [
    {
      "inputs": [
        {
          "name": "_missionID",
          "type": "uint256"
        }
      ],
      "payable": true,
      "stateMutability": "payable",
      "type": "constructor"
    },
    {
      "constant": true,
      "inputs": [],
      "name": "escrowInfo",
      "outputs": [
        {
          "name": "",
          "type": "address"
        }
      ],
      "payable": false,
      "stateMutability": "view",
      "type": "function"
    }
  ],
  "bytecode": "0x60806040526040516020806101578339810180604052602081101561002357600080fd5b810190808051906020019092919050505033600260006101000a81548173ffffffffffffffffffffffffffffffffffffffff021916908373ffffffffffffffffffffffffffffffffffffffff160217905550806000819055505060cc8061008b6000396000f3fe608060405260043610603f576000357c0100000000000000000000000000000000000000000000000000000000900463ffffffff168063f3d25904146044575b600080fd5b348015604f57600080fd5b5060566098565b604051808273ffffffffffffffffffffffffffffffffffffffff1673ffffffffffffffffffffffffffffffffffffffff16815260200191505060405180910390f35b60003090509056fea165627a7a723058203bbd888d73f9514eff3cc77337fe632ae33f3b426c2dff5d4dbbbb2305b73d570029",
  "source": "pragma solidity ^0.5.0;\n\ncontract Escrow {\n    \n    uint missionID;\n    uint amount;\n    address owner;\n    \n    constructor(uint _missionID) public payable {\n        owner = msg.sender;\n        missionID = _missionID;\n    }\n    \n    function escrowInfo() public view returns(address) {\n        return (address(this));\n    }   \n}",
  "sourcePath": "/Users/kennyhsieh/Documents/0x1 Blockchain/BCP/solidity/contracts/Escrow.sol",
  "compiler": {
    "name": "solc",
    "version": "0.5.0+commit.1d4f565a.Emscripten.clang"
  },
  "schemaVersion": "3.0.9",
  "updatedAt": "2019-05-19T09:34:37.135Z",
  "devdoc": {
    "methods": {}
  },
  "userdoc": {
    "methods": {}
  }
}